:020000040800F2
:1000000040040020A9010008F3080008B90800080E
:10001000F108000893020008251200080000000003
:10002000000000000000000000000000610C00085B
:10003000C10700080000000059090008090E000867
:10004000C3010008C3010008C3010008C301000880
:10005000C3010008C3010008C3010008C301000870
:10006000C3010008C3010008C3010008C301000860
:10007000C3010008C3010008C3010008C301000850
:10008000C3010008C3010008C3010008000000000C
:10009000000000000000000000000000C301000894
:1000A000C3010008C3010008C3010008C301000820
:1000B000CD0E0008750F0008C3010008C301000839
:1000C000C3010008C3010008C3010008C301000800
:1000D000C3010008C3010008AD10000800000000C3
:1000E000C3010008C3010008C301000800000000AC
:1000F000000000000000000000000000C301000834
:1001000000000000C3010008C3010008C30100088B
:1001100000000000000000000000000000000000DF
:10012000C3010008C3010008C3010008C30100089F
:10013000C3010008000000000000000000000000F3
:10014000000000000000000000000000C3010008E3
:10015000C3010008C3010008C3010008C30100086F
:10016000C3010008C30100080000000000000000F7
:10017000000000000000000000000000000000007F
:1001800000000000C30100080000000000000000A3
:10019000C3010008DFF80CD000F05AF8004800470F
:1001A000F116000840040020064880470648004732
:1001B000FEE7FEE7FEE7FEE7FEE7FEE7FEE7FEE717
:1001C000FEE7FEE70D0E0008950100082DE9F05F3F
:1001D0000546002092469B468846064681464024B6
:1001E0001BE0284641464746224600F020F8534689
:1001F0005A46C01A914110D311461846224600F0C3
:1002000039F82D1A67EB01084F46224601200021DC
:1002100000F030F817EB00094E41201EA4F1010454
:10022000DFDC484631462A464346BDE8F09F202A97
:1002300004DB203A21FA02F00021704721FA02F390
:10024000D040C2F120029140084319467047000097
:10025000064C074D06E0E06840F0010394E8070013
:1002600098471034AC42F6D3FFF798FF64170008A4
:1002700084170008202A04DB203A00FA02F100204B
:1002800070479140C2F1200320FA03F319439040D4
:100290007047FEE710B500F07FF800F03FF828B196
:1002A00009490120087009A000F0BEFF00F018F80D
:1002B000002808D000F032F8002804D1BDE8104032
:1002C00004A000F0B1BF10BD180000203434343455
:1002D0000D0A000034343434206C6F6E670D0A0050
:1002E00010B54FF400510B4800F0D7FA68B1002167
:1002F000094840F6B83342889A4208D939B1417862
:1003000029B100214180012010BD0121F0E700202A
:1003100010BD0000000802402600002001480078BF
:10032000704700002600002010B54FF40051074828
:1003300000F0B3FA38B100210548427821EA020200
:100340000270417010BD0121F6E700000008024074
:10035000260000201CB50121042000F00DFB4FF405
:100360000050009000208DF8040002218DF8051047
:100370008DF806008DF807106946024800F02CFA47
:100380001CBD00000008024002484188491C418011
:100390007047000026000020FFF7C6BF70B501219E
:1003A00088B0080300F00CFB0121022000F0E4FA01
:1003B000324E05220321304600F05FFA0522042167
:1003C000304600F05AFA05221146304600F055FA40
:1003D00002208DF804008DF80500002408208DF817
:1003E0000640012500908DF807506946304600F020
:1003F000F3F9102000906946304600F0EDF9202016
:1004000000906946304600F0E7F98DF804508DF809
:1004100005408DF806408DF80750AD02694630461C
:10042000009500F0D9F92946304600F03FFA144D06
:10043000284600F09DFB4FF44040ADF808004FF413
:100440008270ADF80A00ADF810406815ADF81200E2
:100450001820ADF814000720ADF80C40ADF81800D6
:10046000ADF80E40ADF8164002A9284600F0C2FBD8
:100470000121284600F00EFB08B070BD00040240C8
:1004800000300140054A1188481C80B21080FF29C5
:1004900000D300201080C0B200F0C8BB14000020C0
:1004A000F0B5012187B0084600F066FA0121480442
:1004B00000F06EFA2B4F07220221384600F0DDF9DA
:1004C00007220321384600F0D8F900248DF80640B1
:1004D00001268DF80760022504208DF80450009055
:1004E0008DF805506946384600F076F908200090EE
:1004F0008DF804506946384600F06EF94FF4E1304B
:100500000290ADF810400C20174DADF80C40ADF83E
:100510001200ADF80E40ADF8144002A9284600F0D4
:1005200023FE012240F22551284600F004FE40211E
:10053000284600F0DAFD0028F9D026208DF81800B2
:100540008DF819408DF81A408DF81B6006A800F050
:10055000D1F90121284600F0BEFD044800F064FEF8
:1005600007B0F0BD0000024000440040141700082E
:1005700038B50C4C2021204600F0B7FD012810D1E1
:10058000204600F047FE8DF800009DF8001006A000
:1005900000F04AFE9DF80000BDE8384006A000F0DB
:1005A00043BE38BD0044004074656D70203D20306E
:1005B000782578200A0D0000494E50555420434DAF
:1005C00044206E6F7420737570706F727420210DEB
:1005D0000A000000074A904201D2074801E005489E
:1005E0001038064A8B0001EA020101D5C16070474C
:1005F0008160704710640240006002407D0F7D0FF3
:100600000029016802D041F0010101E021F001015F
:10061000016070472DE9F043016821F0010101609C
:100620000021016041608160C1600161212141615F
:100630003C493C4A3D251039904202D18D60BDE8CD
:10064000F083384A4FF474661832904201D18E60BC
:10065000F5E7344A4FF474173032904201D18F607D
:10066000EDE7304A4FF0746C4832904202D1C1F845
:1006700008C0E4E72B4B2C4A6033984201D1CA6092
:10068000DDE7284C294B7834A04201D1CB60D6E776
:10069000DFF89080264C08F19008404501D1CC60ED
:1006A000CDE7DFF880804FF03D5908F1A8084045BC
:1006B00002D1C1F80C90C2E71E49DFF878800839F2
:1006C000404501D10D60BAE71A4D1835A84201D155
:1006D0000E60B4E7174D3035A84201D10F60AEE788
:1006E000144D4835A84202D1C1F800C0A7E7114D0A
:1006F00010496035091FA84201D10A609FE70D4AE1
:100700007832904201D10B6099E70A4A90329042C8
:1007100001D10C6093E7074AA83290428FD1C1F80B
:1007200000908CE7106002403D000020400F002048
:1007300000003D20106402400246094B00209A420E
:1007400001D2084A01E0064A103A8B0001D55268EE
:1007500000E01268044B1A400A4200D001207047A2
:1007600010640240006002407D0F7D0F30B50368C9
:10077000124ACC6813400A682243D1E905452C434C
:100780002243CC6922430C6A22434C6A22438C6A7E
:1007900022434C6B22438C6B22431A430260426912
:1007A00022F00703D1E90B2422431A4342610A696C
:1007B00042604A6882608968C16030BD3F801CF039
:1007C0007047000001B50348009941604168002965
:1007D000FCD108BD18000020F0B500230124032738
:1007E0000D6804FA03F21540954242D1D0F800C0DA
:1007F0005E0007FA06F52CEA050CC0F800C091F877
:1008000004C0D0F800E00CFA06FC4CEA0E0CC0F86C
:1008100000C091F804C0BCF1010F02D0BCF1020F7E
:100820001FD1D0F808C02CEA050CC0F808C091F818
:1008300005C0D0F808E00CFA06FC4CEA0E0CC0F833
:1008400008C0D0F804C02CEA020CC0F804C042680A
:1008500091F806C00CFA03FC1FFA8CFC42EA0C0269
:100860004260C268AA43C260CA79C568B2402A43DE
:10087000C2605B1C102BB3D3F0BD4B07DB0E9A405C
:10088000C90810B500EB8100016A0F249C40A14308
:100890000162016A1143016210BD02460020126923
:1008A0000A4200D00120704741837047018370479E
:1008B00042694A4042617047FEE700001CB50121D1
:1008C000084600F059F800208DF8060001208DF848
:1008D00007008DF804002020009002208DF805000C
:1008E00069460248FFF778FF1CBD00000000024087
:1008F000FEE7704730B50F22C47801780123FCB1C0
:10090000144C246801F1E02104F4E064C4F5E064CF
:10091000C4F30724C4F10405E2404478AC40857870
:10092000154025432A0181F80024007800F01F01BA
:100930008B404009800000F1E020C0F8003130BD5C
:1009400001F01F0083404809800000F1E020C0F85A
:10095000803130BD0CED00E07047000010B5032081
:10096000FFF730FFFFF78EFDBDE810402021014862
:10097000FFF79EBF00000240044A0029116801D021
:10098000014300E0814311607047000030380240AD
:10099000044A0029116801D0014300E0814311603D
:1009A0007047000040380240044A0029116801D015
:1009B000014300E08143116070470000203802408D
:1009C000044A0029116801D0014300E0814311600D
:1009D0007047000044380240044A0029116801D0E1
:1009E000014300E081431160704700002438024059
:1009F00070B5204A1168204C11F00C0104D066102B
:100A0000042903D0082903D004601BE0066019E024
:100A10001849091F0B68C3F380550B6803F03F03A7
:100A200015B1B6FBF3F301E0B4FBF3F30C6809680E
:100A3000C4F388146343C1F30141491C4900B3FB6B
:100A4000F1F1016011680F2303EA11110B4B5C5C9B
:100A50000168E14041601468072505EA94241C5DA3
:100A600021FA04F48460126805EA52329A5CD1409B
:100A7000C16070BD083802400024F4002A00002044
:100A8000034A116821F4E0510143116070470000EE
:100A9000083802400029018802D041F0400101E0FD
:100AA00021F040010180704733B50C4601218FB021
:100AB0008805FFF761FF154D2846FFF7ABFD0420C1
:100AC0000021CDE90B01099100020E91CDE906014B
:100AD000CDE904410E480A9101900D91C00508919D
:100AE0000090402003900FA8029069462846FFF727
:100AF0003DFE01212846FFF783FD05480122022122
:100B00000C3800F02CF811B030BD000058640240E1
:100B10000C30014070B50E4C4FF0C05529462046B0
:100B2000FFF70AFE0028F9D029462046FFF752FDBC
:100B3000084D0221284600F00FF800212046FFF75B
:100B40005FFD2846BDE870400022022100F007B892
:100B50005864024000300140C94301817047002AB7
:100B6000828801D00A4300E08A43828070470000F7
:100B70001A4910B5884202D10121841424E0184991
:100B8000884202D10121041404E0164988420AD1A6
:100B90000121C4132046FFF707FF2046BDE810409F
:100BA0000021FFF701BF1049884202D101214414FE
:100BB0000AE00E49884202D101210C0504E00C49EB
:100BC00088420AD101214C052046FFF705FF204647
:100BD000BDE810400021FFF7FFBE10BD003001400E
:100BE00000380040003C004000340140005001400B
:100BF0000054014030B502884C8802F441530A8801
:100C0000CD8822438C882C4322430C8922434C8973
:100C100022438C892243CC8922431A430280828B4F
:100C200022F400628283098A018230BD70B50446D5
:100C30000021491EFDD2094E4FF4806529463046F9
:100C4000FFF732FE01212046FFF72EFFFFF762FF7C
:100C500029463046BDE87040FFF728BE0004024038
:100C6000704700000CB500222D48019200920168E7
:100C700041F4803101604FF4A043016801F4003178
:100C800000910199491C0191009911B9019999426A
:100C9000F3D101688B0323493FD501220092214AF9
:100CA0003832136843F0805313601F4A136843F4CB
:100CB000404313600A680A600A680A600A6842F4DE
:100CC00080520A600B1F194A1A60026842F0807253
:100CD000026002689201FCD5154B40F202721A6064
:100CE0000A6822F003020A600A6842F002020A60FF
:100CF0000A68C2F38102022AFAD10A6822F40002C9
:100D00000A60084A0B497C321160016841F0806139
:100D1000016001680901FCD50CBD0092EDE70000FF
:100D20000038024008380240007000400854410773
:100D3000003C0240005400401FB56846FFF758FED3
:100D400014A000F071FA1BA0009900F06DFA20A029
:100D5000019900F069FA22A0029900F065FA24A036
:100D6000039900F061FA26484FF47A710068B0FBED
:100D7000F1F0401EB0F1807F0BD24FF0E0214861CE
:100D8000204AF02082F8140D0020886107200861B5
:100D90001FBDFEE73D3D3D3D3D3D3D3D3D3D3D3DB6
:100DA0003D3D3D3D3D3D3D3D3D3D3D3D3D3D3D0DA3
:100DB0000A000000535953434C4B5F4672657175EE
:100DC000656E6379203D20256420487A0A0D000075
:100DD000414842203D20256420487A0A0D00000049
:100DE00041504231203D20256420487A0A0D000000
:100DF00041504232203D20256420487A0A0D0000EF
:100E0000000000200FE000E070470000124810B51D
:100E1000016841F4700101601048016841F001016E
:100E200001600E4A00210832116002680C4B1A4022
:100E30000260031D0B4A1A60026822F480220260DD
:100E400006480C300160FFF70DFF03494FF00060CA
:100E50008039086010BD000088ED00E000380240D5
:100E6000FFFFF6FE103000247FB54FF48050FFF7EF
:100E700007FE01210846FFF78BFD41F65730019030
:100E80000B20ADF8000000244FF08045ADF808407D
:100E9000ADF802406946284600F0C0F8012211462C
:100EA000284600F0B2F80121284600F098F81C20EE
:100EB0008DF80C008DF80D408DF80E4001208DF856
:100EC0000F0003A8FFF716FD7FBD000010B501213C
:100ED0008C07204600F08DF8002815D0012120460F
:100EE00000F07AF809480188491C89B20180B1F5FF
:100EF0007A7F01D30021018000F0CEF8FFF744FA99
:100F0000BDE81040FFF7C6B910BD0000200000206A
:100F10007FB54FF48050FFF7B3FD01210220FFF7AA
:100F200037FD41F6573001907720ADF800000024DE
:100F30000F4DADF80840ADF802406946284600F074
:100F40006DF801221146284600F05FF8012128467D
:100F500000F045F81D208DF80C008DF80D408DF83F
:100F60000E4001208DF80F0003A8FFF7C3FC7FBDE2
:100F70000004004070B50F4D0121284600F039F8FB
:100F8000002816D00C4CA088401C80B2A080B0F580
:100F9000FA7F08D362880521501C608007A000F00A
:100FA00043F90020A0802846BDE87040012100F0F0
:100FB00013B870BD000400402000002054494D3398
:100FC000204C4F47474552202564207365632825F0
:100FD0003264290D0A000000C943018270470029CC
:100FE000018802D041F0010101E021F001010180FE
:100FF000704702460020138A92890B4202EA0102DE
:1010000002D0002A00D001207047002A828901D036
:101010000A4300E08A4382817047000030B50288AD
:10102000164B174C98420DD0A0420BD0B0F1804F18
:1010300008D0144DA84205D0134DA84202D0134D3C
:10104000A84203D122F070054A882A43104DA842D5
:1010500006D0104DA84203D022F440750A892A43D5
:1010600002804A68C2620A880285984201D0A04282
:1010700001D1897A01860121818230BD00000140C1
:10108000000401400004004000080040000C004043
:10109000001000400014004003484168002902D0BD
:1010A0004168491E416070471800002010B5074C88
:1010B00040F22551204600F01FF808B1FFF758FA1A
:1010C0002046BDE81040202100F002B80044004056
:1010D000C943018070470029818902D041F4005141
:1010E00001E021F4005181817047024600201288FE
:1010F0000A4200D00120704730B501F01F020124E0
:101100000025C1F3421304FA02F2012B0FD0022B87
:101110000FD0838A4FEA11210088134204FA01F4A8
:1011200000EA040001D000B10125284630BD8389C2
:10113000F0E7038AEEE710B5C1F3421301F01F0494
:101140000121A140012B07D0022B07D01430002A27
:10115000026805D00A4304E00C30F8E71030F6E7E7
:101160008A43026010BD00007FB50446008A0D4628
:1011700020F44051E88808432082A08941F20C61A4
:101180008843A9882A8911436A8902431143A181AE
:10119000A08A20F44071A8890843A0826846FFF71E
:1011A00027FC1A48844202D01948844201D103988E
:1011B00000E00298A189090400EBC00101EB0010D6
:1011C000296801D5490000E08900B0FBF1F26420F4
:1011D000B2FBF0F109010B096FF018056B4302EB4C
:1011E0008302A3891D044FF0320306D503EBC2022C
:1011F000B2FBF0F000F0070005E003EB0212B2FBD7
:10120000F0F000F00F00084320817FBD0010014086
:10121000001401408088C0F308007047C1F3080142
:1012200081807047FEE700000FB4054B10B503A99D
:10123000044A029800F018F810BC5DF814FB000096
:10124000CD1600083C00002002E008C8121F08C1AB
:10125000002AFAD170477047002001E001C1121F37
:10126000002AFBD1704700002DE9FF4F8DB00F46DB
:101270000546002606E025280BD0DDE90F12904731
:101280006D1C761C28780028F5D111B03046BDE8D9
:10129000F08F0024A246A1460122EC4900E004435D
:1012A00015F8013F203B02FA03F00842F7D12878F5
:1012B0002A2810D06FF02F022878A0F130010929D8
:1012C00014D80AEB8A0102EB410144F0020400EB5E
:1012D000010A6D1CF0E701CF5FEA000A03D544F470
:1012E0000054CAF1000A44F002046D1C28782E282C
:1012F00017D115F8010F44F004042A280ED06FF01E
:101300002F022878A0F1300109290AD809EB8901B8
:1013100002EB410100EB01096D1CF2E757F8049B59
:101320006D1C28786C280FD006DC4C2817D0682854
:101330000DD06A2814D104E0742810D07A280FD177
:101340000DE044F400140AE044F4801401E044F495
:1013500040146978814202D104F580146D1C6D1C23
:101360002A786E2A1FD00CDC632A31D004DC002AD4
:101370008BD0582A11D1A3E0642A68D0692A0CD1F5
:1013800065E0732A2ED004DC6F2A73D0702A04D152
:101390009BE0752A6FD0782A6ED01046DDE90F12D7
:1013A0009047761C50E1C4F30250022806D003286F
:1013B00009D0042801CF09D0066045E101CFF1171B
:1013C000C0E9006140E101CF06803DE106703BE1EC
:1013D00017F8040B8DF8000000208DF80100EB4693
:1013E000012003E057F804BB4FF0FF3061074FF0D6
:1013F000000102D40DE008F10101884649450FDAE9
:101400008045F8DB1BF808100029F4D108E008F14A
:10141000010188468142FADB1BF808100029F6D149
:10142000DDE90F23AAEB08008146214600F036F9DA
:10143000304400EB080604E0DDE90F121BF8010B55
:101440009047B8F10108F7D221464846F7E00A2153
:10145000C4F302534FF0000B0891022B04D001CFCC
:10146000C117032B09D00AE0FF1D27F00707F7E893
:10147000020108E032E01FE020E000B2C117042BB7
:1014800001D140B2C117031E71F1000307DA4FF01A
:10149000000CD0EB0C006CEB01012D2302E02305C6
:1014A00004D52B238DF82430012303E0E30701D07A
:1014B0002023F7E7984658E00A2110E010210EE0BB
:1014C00010204FF0000B08900CE010214FF0000BA3
:1014D00044F004044FF00809089103E008214FF09C
:1014E000000B0891C4F30253022B04D001CF00215A
:1014F000032B06D006E0FF1D27F00707F7E80201DF
:1015000003E080B2042B00D1C0B24FF000082307E3
:101510002BD5702A07D0DDF820C08CF0100C5CEAC7
:101520000B0C05D00EE040238DF82430012308E099
:1015300050EA010306D030238DF824308DF82520A1
:1015400002239846DDF820C08CF0080C5CEA0B0CF6
:101550000BD150EA010301D1630706D530238DF882
:1015600024304FF00108A9F10109582A04D038A20B
:101570000B9208AA0A920BE03AA2F9E75B46089A96
:10158000FEF724FE0B9B9B5C0A9A521E0A92137074
:1015900050EA0102F2D10A98ADEB000000F1200BF5
:1015A000600702D524F4803401E04FF00109D945E9
:1015B00002DDA9EB0B0000E0002000EB0B01414431
:1015C0000890AAEB010AE00306D4DDE90F232146C7
:1015D000504600F063F806444FF0000908E009A9FE
:1015E00011F80900DDE90F12904709F10109761C95
:1015F000C145F4DBE0030CD5DDE90F23214650465D
:1016000000F04CF8064404E0DDE90F12302090476A
:10161000761C0899481E08900029F5DC08E00A9815
:101620000A990078491C0A91DDE90F129047761C4F
:10163000BBF10001ABF1010BF1DC21465046DDE9C5
:101640000F2300F019F806446D1C1BE60928010061
:101650003031323334353637383961626364656628
:1016600000000000303132333435363738394142EA
:1016700043444546000000002DE9F04104460025A2
:101680001E461746880404D405E039462020B0479A
:101690006D1C641EF9D52846BDE8F0812DE9F041A6
:1016A000044600251E469046C80301D5302700E0B9
:1016B0002027880404D505E041463846B0476D1C14
:1016C000641EF9D52846BDE8F081000070B5074DCD
:1016D0000446C1B22846FFF7A1FD40212846FFF786
:1016E00004FD0028F9D0204670BD000000440040F1
:1016F000FEF7D6FEFFF720FBFFF7E0F8FEF72AFE25
:10170000FFF7B2FBFFF704FCFEF748FEFFF726F9F0
:10171000FCE700000A0D5553415254205072696E87
:101720007466204578616D706C653A2072657461ED
:1017300072676574207468652043206C6962726109
:101740007279207072696E74662066756E63746952
:101750006F6E20746F207468652055534152540A8F
:101760000D00000084170008000000204000000069
:1017700048120008C41700084000002000040000C0
:101780005812000800BD0105000000000000000024
:101790000102030406070809000000000000000021
:1017A0000000000000000000000000000000000039
:1017B00000000102030401020304060708090000F7
:0417C0000000000025
:040000050800019559
:00000001FF
